:10080000E59054F0FFEFC4540FFF7E0AEF8EF0A482
:10081000FFAEF0E590540FFD7C00EF2DFFEE3CFEA7
:10082000EF750900F508AE08AF097C007D6411B3CF
:10083000D3ED9432EC648094804014AE08AF097C10
:10084000007D6411B3EF2401FFEE3400FE800AAE98
:1008500008AF097C007D6411B38E088F098509A05B
:10086000AE08AF097C007D0A11A18E088F09E5084A
:10087000540FFE7F00EF7804CEA2E713CE13D8F812
:10088000FF8FB07E00AF097C007D0A11A1EE540FEE
:10089000FE7F00EEFF3395E0FEEF25B0F5B00100DE
:0108A0002235
:0300000002093EB4
:0C093E00787FE4F6D8FD758109020800FE
:1008A100EF8DF0A4A8F0CF8CF0A428CE8DF0A42E6B
:0208B100FE2225
:1008B300C2D5EC30E709B2D5E4C39DFDE49CFCEE60
:1008C30030E715B2D5E4C39FFFE49EFE1208E9C3E7
:1008D300E49DFDE49CFC80031208E930D507C3E4E2
:0608E3009FFFE49EFE22CF
:1008E900BC000BBE0029EF8DF084FFADF022E4CCF3
:1008F900F875F008EF2FFFEE33FEEC33FCEE9DECBC
:10090900984005FCEE9DFE0FD5F0E9E4CEFD22ED01
:10091900F8F5F0EE8420D21CFEADF075F008EF2F4B
:10092900FFED33FD4007985006D5F0F222C398FD3C
:050939000FD5F0EA22D9
:00000001FF
